:020000040800F2
:100000001808002045010008814D000851470008EC
:10001000254D0008950900086D5E000800000000ED
:100020000000000000000000000000002552000851
:10003000A909000800000000E5510008E552000889
:100040005F0100085F0100085F0100085F01000810
:100050005F0100085F0100085F0100085F01000800
:100060005F0100085F0100085F01000899090008AE
:100070005F0100085F0100085F0100085F010008E0
:100080005F0100085F0100085F0100085F010008D0
:100090005F0100085F0100085F0100085F010008C0
:1000A0005F0100085F0100085F0100085F010008B0
:1000B0005F0100085F0100085F0100085F010008A0
:1000C0005F0100085F0100085F0100085F01000890
:1000D0005F0100083D5E00084D5E00085D5E00089F
:1000E0005F0100085F0100085F0100085F01000870
:1000F0005F0100085F0100085F0100085F01000860
:100100005F0100085F0100085F0100085F0100084F
:100110005F0100085F01000895530008A55300081F
:100120005F0100085F0100085F0100085F0100082F
:10013000DFF80CD000F0A8FB004800476D71000804
:10014000180800200648804706480047FEE7FEE7FB
:10015000FEE7FEE7FEE7FEE7FEE7FEE7FEE7FEE777
:100160009153000831010008D2B201E000F8012BE0
:10017000491EFBD270470022F6E710B513460A4627
:1001800004461946FFF7F0FF204610BDF0B480EAA0
:100190000102D40F4200B2EB410F02D202460846E0
:1001A00011464A0042D0C30DDDB2C1F3C752AD1AA9
:1001B000202D35DAC1F3160141F4000204B1524298
:1001C000C5F1200602FA06F12A411044B3EBD05FD4
:1001D00023D0C4B1012DA0EBC35009DCF0BC4FF01B
:1001E000004202EAC352DBB200F5000000F0E9B9B8
:1001F000400000F1807000EBC350A0F1807040EA35
:10020000D170490009E0490841EAC071A0EBC35030
:1002100000F50000400800EBC350F0BC00F0C8B986
:100220006142012202EB4101001BF6E7F0BC70477E
:1002300081F00041AAE780F00040A7E780EA0102D0
:1002400010B502F00043400022D04A001FD0010E3A
:1002500001EB1261C0F35600C2F3560240F40000F5
:1002600042F40002A0FB022000047F39140400D0F5
:10027000401C50EA124001D44000491EC2B20C0694
:1002800004EBD010401C4008802A02D003E000207C
:1002900010BD20F00100002900DA0020184310BD35
:1002A0002DE9FE4F81EA030404F0004421F00041EF
:1002B00000944FF0000B23F0004350EA01045ED09D
:1002C00052EA03045BD0C3F30A54C1F30A552C4429
:1002D000A4F2F3340194A0FB0254C1F3130141F4DE
:1002E0008011C3F3130343F4801301FB024400FBAA
:1002F000034E840A970A44EA815447EA8357A4FBD1
:10030000076802958D0A05FB07854FEA932C04FBCD
:100310000C542705029D4FEA065847EA1637B5EBFD
:1003200008056EEB070C870E920E47EA811742EA2A
:100330008312A7FB0201B6EB0B0164EB00042B0D4B
:1003400043EA0C335E1844EB1C50DA465146E7FB97
:100350000201C5F313044FEA0B3343EA14534FEA87
:100360000432019C43EA0603A4F10C040294009CAD
:10037000CDE900B400F062F903B0BDE8F08F0020D1
:100380000146F9E72DE9F04D81EA030404F0004B42
:1003900021F0004514464FF0000A23F0004150EAD6
:1003A000050220D054EA01021DD0C5F30A570246C7
:1003B000C5F31303C1F31300C1F30A5640F48015CB
:1003C00043F48013A7EB0608101BD64608F2FD384D
:1003D00073EB050002D308F1010801E092185B41BC
:1003E000B8F1000F03DA00200146BDE8F08D0020CF
:1003F0004FF48011064684460EE0171B73EB050789
:1004000005D3121B63EB050306434CEA010C4908B4
:100410004FEA300092185B4150EA0107EDD152EAF1
:10042000030012D082EA040083EA0501084305D0E4
:10043000101BAB4106D20122002306E000224FF040
:10044000004302E06FF0010253101AEB06004CEB80
:10045000085110EB0A0041EB0B01BDE8F04D00F034
:10046000DEB8002801DBC0F10040002901DBC1F14A
:100470000041814201D801207047002070470028C8
:1004800001DBC0F10040002901DBC1F100418142E4
:1004900001D20120704700207047002801DBC0F125
:1004A0000040002901DBC1F10041814201D301205C
:1004B000704700207047C10F80EAE0700844CA0707
:1004C0009623002100F07DB800F0004220F00040AB
:1004D000C10DC0F3160040F400007F2901DA0020AE
:1004E0007047962903DCC1F19601C84001E09639B6
:1004F0008840002AF4D04042704720F00040C10DEF
:10050000C0F3160040F400007F2901DA0020704794
:10051000962903DCC1F19601C8407047963988409E
:10052000704730B50B46014600202022012409E027
:1005300021FA02F59D4205D303FA02F5491B04FA9C
:1005400002F52844151EA2F10102F1DC30BD2DE9AF
:10055000F05F0546002092469B4688460646814647
:1005600040241BE0284641464746224600F0ADF9AC
:1005700053465A46C01A914110D311461846224696
:1005800000F094F92D1A67EB01084F46224601202E
:10059000002100F08BF917EB00094E41201EA4F159
:1005A0000104DFDC484631462A464346BDE8F09F59
:1005B0000029A8BF7047401C490008BF20F0010077
:1005C000704710B4B0FA80FC00FA0CF050EA010455
:1005D00004BF10BC704749B1CCF1200421FA04F4E7
:1005E00011FA0CF118BF012121430843A3EB0C01C0
:1005F000CB1D4FEA00614FEA102042BF002010BC23
:10060000704700EBC35010440029A4BF10BC7047D2
:10061000401C490008BF20F0010010BC704710B515
:10062000141E73F1000408DA401C41F10001921815
:100630005B411A4301D120F0010010BD2DE9F04DBE
:1006400092469B4611B1B1FA81F202E0B0FA80F213
:100650002032904600F02AF904460F4640EA0A008C
:1006600041EA0B0153465A46084313D0114653EA58
:10067000010019D0C8F14002504600F026F90546A5
:100680000E4650465946424600F010F9084305D040
:10069000012004E020463946BDE8F08D00200543E6
:1006A00046EAE0762C4337430A986305E40AA0EB58
:1006B00008000022FD0A44EA47540A3002D500200F
:1006C0000146E9E7010510196941DDE9084500190E
:1006D0006941BDE8F04DA2E72DE9FE4F804681EA71
:1006E0000300C00F0C46009021F0004123F00045AC
:1006F000B8EB0200A94105D24046214690461C466F
:100700000B46024623F00040104347D0270DC7F3A5
:100710000A00C3F30A510290401A019040286BDA94
:10072000C3F3130040F4801B0098924620B10023CD
:10073000D2EB030A63EB0B0B01985946C0F1400260
:10074000504600F0B3F806460D4650465946019A09
:1007500000F0CBF810EB08006141002487EA115249
:1007600084EAE7731A4340D0009A62B3019A012ADF
:100770004FEA075215DC001B61EB02014FF000420B
:1007800002EA0752CDE90042001C41F580113246D1
:100790002B46FFF753FF03B0BDE8F08F40462146DC
:1007A000F9E7001B61EB0201001C41F58013001802
:1007B0005B412018A2F5001747EB030140EAD57012
:1007C000B6196D4111E06D084FEA360645EAC0756D
:1007D0004FEA0752001B61EB0201001C41F580113A
:1007E00049084FEA30000019514132462B4603B008
:1007F000BDE8F04FFFF713BF00980122400000232F
:10080000D0EB020263EBE073009821464FEAE074FC
:10081000B8EB000061EB0401E9E783F000435BE71C
:1008200081F0004158E7C1F30A52C1F3130140F2CD
:10083000FF3341F480119A4202DA002001467047EA
:1008400040F233439A42A2F2334202DC524200F0B9
:100850003CB800F02BB8000030B5041E71F1000464
:1008600004DB4FF00044404264EB0101141E73F1BD
:10087000000405DB1C464FF00043524263EB0403C7
:10088000994208BF904230BD064C074D06E0E06833
:1008900040F0010394E8070098471034AC42F6D3C7
:1008A000FFF74AFC587D0008787D0008202A04DB09
:1008B000203A00FA02F1002070479140C2F1200373
:1008C00020FA03F3194390407047202A04DB203AB2
:1008D00021FA02F00021704721FA02F3D040C2F160
:1008E00020029140084319467047202A06DBCB17A7
:1008F000203A41FA02F043EAE07306E041FA02F3DB
:10090000D040C2F1200291400843194670470000D0
:1009100080B584B002900020019002980068806841
:10092000C00770B3FFE702980168886820F00100F3
:10093000886001F09DFA0190FFE7029800688068E6
:10094000C007E8B1FFE701F093FA0199401A0328C4
:1009500015D3FFE7029800688068C00770B1FFE711
:100960000299886A40F0100088620299C86A40F0D3
:100970000100C86201208DF80F0006E0FFE7DCE708
:10098000FFE700208DF80F00FFE79DF80F0004B08F
:1009900080BD0000FFE7FEE780B540F2F400C2F240
:1009A000000000F0C3FC80BD7047000081B0EFF391
:1009B000108072B60090FFE7FEE7000040F284105E
:1009C000C2F200000068416A40F2AE00C2F20000CC
:1009D000018040F2CC11C2F200010968496A40F27C
:1009E000B002C2F200021180B0F90000002808DC59
:1009F000FFE740F2AE01C2F20001088840420880E1
:100A0000FFE740F2B000C2F20000B0F90000002899
:100A100008DCFFE740F2B001C2F200010888404262
:100A20000880FFE740F2B000C2F20000018840F207
:100A3000C200C2F20000018040F2AE01C2F2000129
:100A40000A8840F2C001C2F200010A8040F284121A
:100A5000C2F20002136800225A6240F2CC13C2F2C2
:100A600000031B685A62B1F9003040F2B802C2F2CA
:100A70000002116819441160B0F9002040F2BC0175
:100A8000C2F20001086810440860704785B0039006
:100A9000029100208DF807000090FFE7039890F87E
:100AA0002400012804D1FFE702208DF81300C3E0E1
:100AB0000399012081F82400FFE7FFE702984068CE
:100AC000062812D8FFE703980068406B029A116865
:100AD000526802EB8202053A1F23934098439140EB
:100AE000084303990968486329E0029840680C2884
:100AF00012D8FFE703980068006B029A11685268E9
:100B000002EB8202233A1F2393409843914008430B
:100B100003990968086311E003980068C06A029AA3
:100B20001168526802EB8202413A1F2393409843B6
:100B30009140084303990968C862FFE7FFE70298FC
:100B400000680A2812D3FFE703980068C06802997A
:100B50000A68896802EB42021E3A072393409843D1
:100B60009140084303990968C86010E00398006841
:100B7000006902990A68896802EB420207239340E0
:100B8000984391400843039909680861FFE7029878
:100B90000068102805D0FFE702980068112840D1AE
:100BA000FFE70398006842F20041C4F20101884265
:100BB0002DD1FFE70398006880680002002825D443
:100BC000FFE703980168886840F400008860029895
:100BD0000068102819D1FFE740F20400C2F20000BB
:100BE00000684DF68361C4F21B31A0FB0110800C3C
:100BF00000EB800040000090FFE7009820B1FFE785
:100C0000009801380090F8E7FFE7FFE708E0039954
:100C1000886A40F02000886201208DF80700FFE715
:100C2000FFE7FFE70399002081F82400FFE79DF824
:100C300007008DF81300FFE79DF8130005B070471B
:100C400080B58CB00A9000208DF82700089007909E
:100C500006900A9820B9FFE701208DF82F0014E1D3
:100C60000A98806830B1FFE70A98007D08B1FFE775
:100C7000FFE7FFE70A98806A50B9FFE70A9900206A
:100C8000C8620A9981F824000A9800F003F9FFE786
:100C90000A98FFF73DFE8DF827000A98806AC00683
:100CA000002800F1E480FFE79DF82700002840F0CD
:100CB000DE80FFE70A98806A40F0020020F4885046
:100CC0000A9988620A9908684968059143F60041C3
:100CD000C4F20101884211D1FFE70A98C069B0F55A
:100CE000402F04D1FFE74FF40020049003E00A985E
:100CF000C0690490FFE70498039003E00A98C06974
:100D00000390FFE70598039908430A99097B40EA95
:100D100041010798084307900A9881680120B1F5BE
:100D2000807F029008D0FFE70A9880680138B0FA07
:100D300080F040090290FFE702990898CA0740F442
:100D40008071002A18BF084608900A98007D012883
:100D50001ED1FFE70A98007B70B9FFE70A98816906
:100D60004EF20000CFF6FF7000EB413008990843C7
:100D700040F4006008900AE00A99886A40F0200078
:100D800088620A99C86A40F00100C862FFE7FFE77D
:100D90000A980068406820F46940089908430A9955
:100DA000096848600A98006880684FF2FD71CFF6C4
:100DB000E1710840079908430A99096888600A9810
:100DC00081680120B1F5807F019008D0FFE70A9883
:100DD00080680138B0FA80F040090190FFE701987F
:100DE00000F00100002818BF4FF48070B0F5807F3C
:100DF00009D1FFE70A9801690020CFF6F07000EBF7
:100E000001500690FFE70A980068C06A20F470005D
:100E1000069908430A990968C8620A9800688068B8
:100E200040F6FE61CFF61F710840079988420CD149
:100E3000FFE70A990020C8620A98806A40F0010022
:100E400020F002000A99886210E00A98806A40F057
:100E5000100020F002000A9988620A99C86A40F0DE
:100E60000100C86201208DF82700FFE708E00A9919
:100E7000886A40F01000886201208DF82700FFE7A3
:100E80009DF827008DF82F00FFE79DF82F000CB08C
:100E900080BD000080B58CB00B9000200A900990B6
:100EA000089007900B98006842F20041C4F20101DB
:100EB00088426ED1FFE7FFE741F21800C4F202005A
:100EC000016841F400710160006800F40070069050
:100ED0000698FFE7FFE741F21800C4F2020001683C
:100EE00041F004010160006800F0040005900598DD
:100EF000FFE7FFE741F21800C4F20200016841F089
:100F000008010160006800F0080004900498FFE701
:100F1000F020079003200190089040F60000C4F2F2
:100F2000010007A9029100F0DFFD0198029901225A
:100F30000792089040F60040C4F2010000F0D4FD92
:100F400040F2F400C2F2000003900821C4F2020152
:100F500001600021416081608022C2604FF4807294
:100F600002614FF48062426120228261C16100F01F
:100F70001FFD18B1FFE7FFF719FDFFE7FFE70B982B
:100F800040F2F401C2F2000101620B984862FFE7EF
:100F9000FFE70CB080BD000083B0019000208DF809
:100FA0000300019890F8210002280DD0FFE7019975
:100FB00004208863FFE70199002081F82000FFE703
:100FC00001208DF80B0021E001980168086820F0ED
:100FD0000E00086001980168086820F001000860B0
:100FE0000198C16B026C012090404860FFE70199B5
:100FF000012081F82100FFE70199002081F82000FD
:10100000FFE79DF803008DF80B00FFE79DF80B004C
:1010100003B0704780B596B0159000208DF853004E
:10102000159890F82100022807D0FFE715990420B1
:10103000886301208DF8530074E1159801680868F1
:1010400020F00E00086015980168086820F0010083
:101050000860159800688121C4F202018842C0F03E
:10106000A880FFE7159800680821C4F202018842B1
:1010700003D1FFE70120139094E0159800681C212C
:10108000C4F20201884203D1FFE71020129086E0EB
:10109000159800683021C4F20201884204D1FFE7AC
:1010A0004FF48070119077E0159800684421C4F2E5
:1010B0000201884204D1FFE74FF48050109068E0AD
:1010C000159800685821C4F20201884204D1FFE754
:1010D0004FF480300F9059E0159800686C21C4F2ED
:1010E0000201884204D1FFE74FF480100E904AE0DD
:1010F000159800688021C4F20201884204D1FFE7FC
:101100004FF080700D903BE01598006840F2084168
:10111000C4F20201884203D1FFE701200C902CE0C9
:101120001598006840F21C41C4F20201884203D1C4
:10113000FFE710200B901DE01598006840F2304149
:10114000C4F20201884204D1FFE74FF480700A9094
:101150000DE01598016840F24442C4F202024FF4D7
:101160008030914208BF4FF480500A90FFE70A9800
:101170000B90FFE70B980C90FFE70C980D90FFE7A2
:101180000D980E90FFE70E980F90FFE70F981090C4
:10119000FFE710981190FFE711981290FFE712985F
:1011A0001390FFE7139840F20441C4F20201086073
:1011B000A5E0159800680821C4F20201884203D115
:1011C000FFE70120099094E0159800681C21C4F203
:1011D0000201884203D1FFE71020089086E01598AD
:1011E00000683021C4F20201884204D1FFE74FF4C5
:1011F0008070079077E0159800684421C4F20201DE
:10120000884204D1FFE74FF48050069068E01598BB
:1012100000685821C4F20201884204D1FFE74FF46C
:101220008030059059E0159800686C21C4F20201E5
:10123000884204D1FFE74FF4801004904AE01598EB
:1012400000688021C4F20201884204D1FFE74FF018
:10125000807003903BE01598006840F20841C4F2AA
:101260000201884203D1FFE7012002902CE015988B
:10127000006840F21C41C4F20201884203D1FFE73A
:10128000102001901DE01598006840F23041C4F232
:101290000201884204D1FFE74FF4807000900DE016
:1012A0001598016840F24442C4F202024FF48030C3
:1012B000914208BF4FF480500090FFE700980190E2
:1012C000FFE701980290FFE702980390FFE7039879
:1012D0000490FFE704980590FFE705980690FFE764
:1012E00006980790FFE707980890FFE7089809908D
:1012F000FFE709980421C4F202010860FFE715998D
:10130000012081F82100FFE71599002081F82000D5
:10131000FFE71598406B20B1FFE71598416B8847B0
:10132000FFE7FFE79DF8530016B080BD80B5ACB075
:101330002B902B98C06B00682A902B98006800684F
:1013400029902A982B99096CC8404007002840F141
:101350007581FFE79DF8A4004007002840F16E81E9
:10136000FFE72B98006800688006002807D4FFE795
:101370002B980168086820F004000860FFE72B98AC
:1013800000688121C4F202018842C0F0A880FFE712
:101390002B9800680821C4F20201884203D1FFE7BC
:1013A0000420289094E02B9800681C21C4F20201CC
:1013B000884203D1FFE74020279086E02B98006801
:1013C0003021C4F20201884204D1FFE74FF480606B
:1013D000269077E02B9800684421C4F202018842ED
:1013E00004D1FFE74FF48040259068E02B98006817
:1013F0005821C4F20201884204D1FFE74FF4802053
:10140000249059E02B9800686C21C4F202018842B4
:1014100004D1FFE74FF4800023904AE02B98006846
:101420008021C4F20201884204D1FFE74FF08060BE
:1014300022903BE02B98006840F20841C4F2020180
:10144000884203D1FFE7042021902CE02B9800680C
:1014500040F21C41C4F20201884203D1FFE7402060
:1014600020901DE02B98006840F23041C4F2020148
:10147000884204D1FFE74FF480601F900DE02B9865
:10148000016840F24442C4F202024FF480209142CB
:1014900008BF4FF480401F90FFE71F982090FFE7A0
:1014A00020982190FFE721982290FFE7229823902F
:1014B000FFE723982490FFE724982590FFE72598DD
:1014C0002690FFE726982790FFE727982890FFE7C8
:1014D000289840F20441C4F202010860A5E02B986C
:1014E00000680821C4F20201884203D1FFE704200A
:1014F0001E9094E02B9800681C21C4F202018842DF
:1015000003D1FFE740201D9086E02B980068302132
:10151000C4F20201884204D1FFE74FF480601C90BE
:1015200077E02B9800684421C4F20201884204D17C
:10153000FFE74FF480401B9068E02B98006858212B
:10154000C4F20201884204D1FFE74FF480201A90D0
:1015500059E02B9800686C21C4F20201884204D142
:10156000FFE74FF4800019904AE02B980068802133
:10157000C4F20201884204D1FFE74FF08060189066
:101580003BE02B98006840F20841C4F20201884217
:1015900003D1FFE7042017902CE02B98006840F25D
:1015A0001C41C4F20201884203D1FFE7402016909B
:1015B0001DE02B98006840F23041C4F202018842DD
:1015C00004D1FFE74FF4806015900DE02B9801687F
:1015D00040F24442C4F202024FF48020914208BF1C
:1015E0004FF480401590FFE715981690FFE7169886
:1015F0001790FFE717981890FFE718981990FFE7E2
:1016000019981A90FFE71A981B90FFE71B981C90F7
:10161000FFE71C981D90FFE71D981E90FFE71E989E
:101620000421C4F202010860FFE72B98C06A20B1D0
:10163000FFE72B98C16A8847FFE7B7E12A982B9903
:10164000096CC8408007002840F17F81FFE79DF8C2
:10165000A4008007002840F17881FFE72B980068FC
:101660000068800600280BD4FFE72B980168086803
:1016700020F00A0008602B99012081F82100FFE783
:101680002B9800688121C4F202018842C0F0A88032
:10169000FFE72B9800680821C4F20201884203D1B9
:1016A000FFE70220149094E02B9800681C21C4F2FC
:1016B0000201884203D1FFE72020139086E02B9897
:1016C00000683021C4F20201884204D1FFE74FF4E0
:1016D0000070129077E02B9800684421C4F2020158
:1016E000884204D1FFE74FF40050119068E02B9836
:1016F00000685821C4F20201884204D1FFE74FF488
:101700000030109059E02B9800686C21C4F202015F
:10171000884204D1FFE74FF400100F904AE02B9865
:1017200000688021C4F20201884204D1FFE74FF033
:1017300000700E903BE02B98006840F20841C4F224
:101740000201884203D1FFE702200D902CE02B9884
:10175000006840F21C41C4F20201884203D1FFE755
:1017600020200C901DE02B98006840F23041C4F21C
:101770000201884204D1FFE74FF400700B900DE0A6
:101780002B98016840F24442C4F202024FF4003048
:10179000914208BF4FF400500B90FFE70B980C905C
:1017A000FFE70C980D90FFE70D980E90FFE70E985D
:1017B0000F90FFE70F981090FFE710981190FFE748
:1017C00011981290FFE712981390FFE71398149066
:1017D000FFE7149840F20441C4F202010860A5E05A
:1017E0002B9800680821C4F20201884203D1FFE768
:1017F00002200A9094E02B9800681C21C4F2020198
:10180000884203D1FFE72020099086E02B980068EA
:101810003021C4F20201884204D1FFE74FF4007086
:10182000089077E02B9800684421C4F202018842B6
:1018300004D1FFE74FF40050079068E02B98006850
:101840005821C4F20201884204D1FFE74FF400306E
:10185000069059E02B9800686C21C4F2020188427E
:1018600004D1FFE74FF4001005904AE02B98006880
:101870008021C4F20201884204D1FFE74FF00070DA
:1018800004903BE02B98006840F20841C4F202014A
:10189000884203D1FFE7022003902CE02B980068D8
:1018A00040F21C41C4F20201884203D1FFE720202C
:1018B00002901DE02B98006840F23041C4F2020112
:1018C000884204D1FFE74FF4007001900DE02B989F
:1018D000016840F24442C4F202024FF400309142E7
:1018E00008BF4FF400500190FFE701980290FFE716
:1018F00002980390FFE703980490FFE7049805908F
:10190000FFE705980690FFE706980790FFE707981E
:101910000890FFE708980990FFE709980A90FFE709
:101920000A980421C4F202010860FFE7FFE72B993F
:10193000002081F82000FFE72B98806A20B1FFE7A4
:101940002B98816A8847FFE72FE02A982B99096C2A
:10195000C8400007002827D5FFE79DF8A40000072E
:10196000002821D5FFE72B980168086820F00E00B9
:1019700008602B98C26B016C012000FA01F15160E4
:101980002B9988632B9981F82100FFE72B99002080
:1019900081F82000FFE72B98006B20B1FFE72B9820
:1019A000016B8847FFE7FFE7FFE7FFE72CB080BD4B
:1019B00083B0019000200090019820B9FFE701203A
:1019C0008DF80B006AE00198006840F20741C4F20C
:1019D0000201884218D8FFE7019908684FF6F872AB
:1019E000CBF6FD7210444CF6CD42CCF6CC42A0FBB7
:1019F00002026FF0030000EA9200086401990020DF
:101A0000C4F20200C86318E0019908684FF6F83282
:101A1000CBF6FD7210444CF6CD42CCF6CC42A0FB86
:101A200002026FF0030000EA92000864019940F29C
:101A30000040C4F20200C863FFE70199022081F868
:101A400021000198006800680090009843F6F0714A
:101A50008843009001994868D1F808C0CB680A69AA
:101A600040EA0C00184310434A6910438A69104346
:101A7000C9690143009808430090009801990968DA
:101A80000860019900208863019A012182F82110E1
:101A9000019981F820008DF80B00FFE79DF80B00FD
:101AA00003B0704780B584B0039000F0E1F9029074
:101AB000039801900198013048B1FFE740F20D0012
:101AC000C2F200000178019808440190FFE7FFE7A7
:101AD00000F0CEF90299401A0199884201D2FFE73D
:101AE000F6E704B080BD000092B011901091002084
:101AF0000F900B90FFE7109800680F99C8400028DE
:101B000000F09B81FFE70F99012088400E9010980C
:101B100000680E9908400D900D980E99884240F08B
:101B20008881FFE7109840680790002851D0FFE7B0
:101B3000079801283AD0FFE7079802283FD0FFE72F
:101B4000079803285FD0FFE70798112832D0FFE7F6
:101B50000798122838D0FFE707980021C1F2110139
:101B6000884236D0FFE707980021C1F2120188426F
:101B70002FD0FFE707980021C1F22101884228D029
:101B8000FFE707980021C1F22201884221D0FFE738
:101B900007980021C1F2310188421AD0FFE7079867
:101BA0000021C1F23201884213D02FE01098C068A2
:101BB0000B902CE01098C06804300B9027E0109830
:101BC000C06808300B9022E01098C0680C300B9071
:101BD0001DE01098806818B9FFE704200B9011E011
:101BE00010988068012806D1FFE708200B900E9816
:101BF0001199086105E008200B900E981199486131
:101C0000FFE7FFE703E000200B9000E0FFE70D98FF
:101C1000FF2803D8FFE71198069003E011980430DD
:101C20000690FFE706980A900D98FF2804D8FFE772
:101C30000F988000059006E00F996FF01F0000EBF1
:101C400081000590FFE7059809900A980068099AB5
:101C50000F21914088430B99914008430A990860ED
:101C60001098C079C006002840F1E280FFE7FFE746
:101C700041F21800C4F20200016841F00101016064
:101C8000006800F0010008900898FFE70F9820F026
:101C900003000821C4F2010140580C900F9800F095
:101CA000030081000F2000FA01F10C9888430C908A
:101CB000119840F60001C4F20101884203D1FFE708
:101CC0000020049042E0119840F60041C4F2010166
:101CD000884203D1FFE70120039034E0119841F2DC
:101CE0000001C4F20101884203D1FFE70220029003
:101CF00026E0119841F20041C4F20101884203D16B
:101D0000FFE70320019018E0119841F60001C4F2AA
:101D10000101884203D1FFE7042000900AE01199F5
:101D200041F60042C4F201020620914208BF05209C
:101D30000090FFE700980190FFE701980290FFE70D
:101D400002980390FFE703980490FFE704980F9927
:101D500001F00301890000FA01F10C9808430C908E
:101D60000C980F9921F003010822C4F20102885057
:101D700010988079C00748B1FFE70D9A40F2004102
:101D8000C4F2010108681043086008E00D9A40F2AF
:101D90000041C4F20101086890430860FFE7109811
:101DA00080798007002809D5FFE70D9A40F20441A9
:101DB000C4F2010108681043086008E00D9A40F27F
:101DC0000441C4F20101086890430860FFE71098DD
:101DD0008079C006002809D5FFE70D9A40F2084136
:101DE000C4F2010108681043086008E00D9A40F24F
:101DF0000841C4F20101086890430860FFE71098A9
:101E000080798006002809D5FFE70D9A40F20C4141
:101E1000C4F2010108681043086008E00D9A40F21E
:101E20000C41C4F20101086890430860FFE7FFE736
:101E3000FFE70F9801300F905DE612B07047000089
:101E400082B00190ADF802108DF801209DF80100DC
:101E500028B1FFE7BDF802000199086105E0BDF86F
:101E60000200000401990861FFE702B0704700001A
:101E700040F21040C2F200000068704740F20D00CE
:101E8000C2F20000027840F21041C2F2000108687C
:101E9000104408607047000080B582B042F2000133
:101EA000C4F20201086840F01000086003200190AD
:101EB00000F096F8019800F005F800F03BF80020DB
:101EC00002B080BD80B582B0009040F20400C2F242
:101ED0000000006840F20D01C2F200010A784FF4E0
:101EE0007A71B1FBF2F1B0FBF1F000F06BFE20B1C2
:101EF000FFE701208DF8070018E000980F280DD8A3
:101F0000FFE700994FF0FF30002200F04FF80098F3
:101F100040F21001C2F20001086003E001208DF8D8
:101F2000070003E000208DF80700FFE79DF8070099
:101F300002B080BD83B0FFE741F21800C4F2020096
:101F4000016841F001010160006800F001000290A9
:101F50000298FFE7FFE741F21C00C4F202000168AB
:101F600041F080510160006800F0805001900198BC
:101F7000FFE7FFE70421C4F2010108680090009820
:101F800020F0E0600090009840F000700090009811
:101F90000860FFE703B0704780B582B08DF8070096
:101FA0009DF9070003F064FF02B080BD80B586B0E4
:101FB0008DF81700049103920020029003F070FF47
:101FC00002909DF91700019002980499039A02F07B
:101FD000D9FE0146019803F06BFF06B080BD0000FA
:101FE00080B582B00190019803F084FF02B080BDFB
:101FF00080B586B004900020039002900498007889
:10200000C007002800F0AC80FFE700208DF8070033
:1020100041F21C00C4F202000068C000002813D482
:10202000FFE7FFE741F21C00C4F20200016841F043
:1020300080510160006800F0805000900098FFE738
:1020400001208DF80700FFE747F20000C4F200000E
:102050000068C005002822D4FFE747F20001C4F25F
:102060000001086840F480700860FFF701FF0390EA
:10207000FFE747F20000C4F200000068C005002836
:102080000CD4FFE7FFF7F4FE0399401A652804D348
:10209000FFE703208DF817008AE0EAE7FFE741F247
:1020A0002000C4F20200006800F440700290029820
:1020B000E0B3FFE702980499496801F4407188424F
:1020C00034D0FFE741F22001C4F20201086820F495
:1020D0004070029040F24042C4F24222012010605F
:1020E00000201060029808609DF80800C007E0B169
:1020F000FFE7FFF7BDFE0390FFE741F22000C4F2C7
:1021000002000068800700280ED4FFE7FFF7B0FE4A
:102110000399401A41F28931884204D3FFE7032032
:102120008DF8170044E0E8E7FFE7FFE741F2200100
:10213000C4F20201086820F44070049A5268104307
:1021400008609DF80700012809D1FFE741F21C0152
:10215000C4F20201086820F080500860FFE7FFE742
:1021600004980078800700280CD5FFE741F20401AD
:10217000C4F20201086820F44040049A92681043B7
:102180000860FFE704980078C00600280CD5FFE738
:1021900041F20401C4F20201086820F48000049AAC
:1021A000526910430860FFE700208DF81700FFE731
:1021B0009DF8170006B080BD80B584B002900191F3
:1021C000029820B9FFE701208DF80F001BE101986C
:1021D00042F20001C4F20201096801F007018842DD
:1021E00016D9FFE742F20000C4F20200016821F0B4
:1021F0000701019A11430160006800F0070001998E
:10220000884204D0FFE701208DF80F00FBE0FFE7D4
:1022100002980078800700282AD5FFE70298007806
:102220004007002809D5FFE741F20401C4F202018A
:10223000086840F4E0600860FFE702980078000753
:10224000002809D5FFE741F20401C4F20201086841
:1022500040F460500860FFE741F20401C4F202015B
:10226000086820F0F000029A926810430860FFE7C7
:1022700002980078C007002860D0FFE70298406805
:1022800001280ED1FFE741F20000C4F2020000680D
:102290008003002804D4FFE701208DF80F00B2E08E
:1022A00021E00298406802280ED1FFE741F20000C9
:1022B000C4F2020000688001002804D4FFE7012076
:1022C0008DF80F009FE00DE041F20000C4F2020023
:1022D00000688007002804D4FFE701208DF80F0074
:1022E00091E0FFE7FFE741F20401C4F20201086850
:1022F00020F00300029A526810430860FFF7B8FD0F
:102300000090FFE741F20400C4F20200006800F010
:102310000C0002994968B0EB810F0ED0FFE7FFF780
:10232000A7FD0099401A41F28931884204D3FFE7A2
:1023300003208DF80F0066E0E4E7FFE7019842F222
:102340000001C4F20201096801F00701884216D2B7
:10235000FFE742F20000C4F20200016821F0070129
:10236000019A11430160006800F00700019988425A
:1023700004D0FFE701208DF80F0044E0FFE702984A
:102380000078400700280CD5FFE741F20401C4F2B1
:102390000201086820F4E060029AD26810430860E5
:1023A000FFE702980078000700280DD5FFE741F20B
:1023B0000401C4F20201086820F46050029A126914
:1023C00040EAC2000860FFE700F04CF841F2040167
:1023D000C4F202010968C9B20A0947F63451C0F6CD
:1023E0000001895CC84040F20401C2F200010860AB
:1023F00040F21000C2F200000068FFF763FD002009
:102400008DF80F00FFE79DF80F0004B080BD0000BD
:1024100040F20400C2F200000068704780B5FFF788
:10242000F7FF41F20401C4F202010968C1F302227C
:1024300047F64451C0F60001895CC84080BD0000E9
:1024400080B5FFF7E5FF41F20401C4F2020109681B
:10245000C1F3C22247F64451C0F60001895CC8406E
:1024600080BD00008BB040F60E70C1F210000A90E3
:1024700040F60A30C0F60C50099040F20670C0F6E3
:102480000810089040F20230C0F20450079040F269
:102490000120ADF81A0000200590049003900290EE
:1024A000019041F20400C4F2020000680590059812
:1024B00000F00C0001460091E0B3FFE7009804280B
:1024C00004D0FFE70098082806D034E041F200204D
:1024D000C0F27A00019034E00598C0F3834107A868
:1024E000405C02909DF81600C007C0B1FFE741F2C2
:1024F0000400C4F20200006800F400310DF11A007B
:1025000040EA514000780490029841F20021C0F264
:102510007A0148430499B0FBF1F0039007E0029878
:1025200040F60011C0F23D0148430390FFE70398D5
:10253000019006E0FFE741F20020C0F27A0001902E
:10254000FFE701980BB0704780B586B004900498FF
:1025500020B9FFE701208DF817002EE304980078DA
:10256000C007002800F0AE80FFE741F20400C4F28B
:102570000200006800F00C00042813D0FFE741F2CD
:102580000400C4F20200006800F00C0008281BD10F
:10259000FFE741F20400C4F202000068C003002813
:1025A00012D5FFE741F20000C4F202000068800388
:1025B000002808D5FFE70498406820B9FFE701200C
:1025C0008DF81700F9E27CE0FFE704984068B0F569
:1025D000803F09D1FFE741F20001C4F2020108681F
:1025E00040F48030086032E00498406868B9FFE742
:1025F00041F20001C4F20201086820F48030086052
:10260000086820F48020086020E004984068B0F555
:10261000A02F0DD1FFE741F20001C4F202010868CA
:1026200040F480200860086840F4803008600CE0C6
:1026300041F20001C4F20201086820F48030086011
:10264000086820F480200860FFE7FFE7FFE7FFE766
:1026500004984068D0B1FFE7FFF70AFC0390FFE75A
:1026600041F20000C4F202000068800300280CD48C
:10267000FFE7FFF7FDFB0399401A652804D3FFE746
:1026800003208DF8170098E2EAE719E0FFF7F0FB66
:102690000390FFE741F20000C4F2020000688003EB
:1026A00000280CD5FFE7FFF7E3FB0399401A6528E4
:1026B00004D3FFE703208DF817007EE2EAE7FFE787
:1026C000FFE7FFE7049800788007002840F18D803D
:1026D000FFE741F20400C4F20200006810F00C0FA2
:1026E00013D0FFE741F20400C4F20200006800F0DA
:1026F0000C00082829D1FFE741F20400C4F20200CF
:102700000068C003002820D4FFE741F20000C4F2B3
:10271000020000688007002809D5FFE704980069D7
:10272000012804D0FFE701208DF8170045E241F2AF
:102730000001C4F20201086820F0F800049A52690E
:1027400040EAC2000860FFE74EE00498006958B311
:10275000FFE70021C4F2422101200860FFF788FB57
:102760000390FFE741F20000C4F202000068800716
:1027700000280CD4FFE7FFF77BFB0399401A0328DE
:1027800004D3FFE703208DF8170016E2EAE741F2D1
:102790000001C4F20201086820F0F800049A5269AE
:1027A00040EAC20008601EE00021C4F2422100207D
:1027B0000860FFF75DFB0390FFE741F20000C4F201
:1027C00002000068800700280CD5FFE7FFF750FBE8
:1027D0000399401A032804D3FFE703208DF817005C
:1027E000EBE1EAE7FFE7FFE7FFE70498007800077F
:1027F000002848D5FFE70498806918B3FFE740F246
:102800008041C4F2422101200860FFF731FB0390B0
:10281000FFE741F22400C4F20200006880070028AC
:102820000CD4FFE7FFF724FB0399401A032804D3D5
:10283000FFE703208DF81700BFE1EAE7012002F06F
:10284000D3FC1FE040F28041C4F242210020086026
:10285000FFF70EFB0390FFE741F22400C4F20200F1
:102860000068800700280CD5FFE7FFF701FB0399FC
:10287000401A032804D3FFE703208DF817009CE1DA
:10288000EAE7FFE7FFE7049800784007002840F1F7
:10289000D880FFE700208DF8070041F21C00C4F249
:1028A00002000068C000002813D4FFE7FFE741F2F0
:1028B0001C00C4F20200016841F080510160006810
:1028C00000F0805000900098FFE701208DF807008D
:1028D000FFE747F20000C4F200000068C0050028CE
:1028E00022D4FFE747F20001C4F20001086840F477
:1028F00080700860FFF7BCFA0390FFE747F2000022
:10290000C4F200000068C00500280CD4FFE7FFF700
:10291000AFFA0399401A652804D3FFE703208DF826
:1029200017004AE1EAE7FFE7FFE70498C0680128DB
:1029300009D1FFE741F22001C4F20201086840F02A
:102940000100086031E00498C06868B9FFE741F20F
:102950002001C4F20201086820F001000860086844
:1029600020F0040008601FE00498C06805280DD11D
:10297000FFE741F22001C4F20201086840F00400C0
:102980000860086840F0010008600CE041F2200196
:10299000C4F20201086820F001000860086820F015
:1029A00004000860FFE7FFE7FFE7FFE70498C0685F
:1029B000E0B1FFE7FFF75CFA0390FFE741F2200088
:1029C000C4F202000068800700280ED4FFE7FFF77A
:1029D0004FFA0399401A41F28931884204D3FFE744
:1029E00003208DF81700E8E0E8E71BE0FFF740FA66
:1029F0000390FFE741F22000C4F202000068800764
:102A000000280ED5FFE7FFF733FA0399401A41F289
:102A10008931884204D3FFE703208DF81700CCE00A
:102A2000E8E7FFE79DF80700012809D1FFE741F239
:102A30001C01C4F20201086820F080500860FFE722
:102A4000FFE70498C069002800F0B380FFE741F277
:102A50000400C4F20200006800F00C00082800F036
:102A60008280FFE70498C06902285CD1FFE76021FB
:102A7000C4F2422100200860FFF7FAF90390FFE753
:102A800041F20000C4F202000068800100280CD569
:102A9000FFE7FFF7EDF90399401A032804D3FFE796
:102AA00003208DF8170088E0EAE70498006AB0F583
:102AB000803F0CD1FFE741F20401C4F20201086833
:102AC00020F40030049A926810430860FFE741F256
:102AD0000401C4F20201086820F47410049B1A6A0D
:102AE0005B6A1A43104308606021C4F2422101204E
:102AF0000860FFF7BDF90390FFE741F20000C4F260
:102B000002000068800100280CD4FFE7FFF7B0F94D
:102B10000399401A032804D3FFE703208DF8170018
:102B20004BE0EAE71EE06021C4F242210020086089
:102B3000FFF79EF90390FFE741F20000C4F20200A4
:102B40000068800100280CD5FFE7FFF791F9039991
:102B5000401A032804D3FFE703208DF817002CE068
:102B6000EAE7FFE724E00498C069012804D1FFE701
:102B700001208DF8170020E041F20400C4F20200A9
:102B800000680290029800F480300499096A884233
:102B900008D1FFE7029800F470100499496A88424E
:102BA00004D0FFE701208DF8170006E0FFE7FFE7FC
:102BB000FFE700208DF81700FFE79DF8170006B02B
:102BC00080BD000080B582B00190019802F060FBEA
:102BD00002B080BD81B0009001B0704781B000901C
:102BE00001B0704784B00290019100200090FFE78F
:102BF000029890F83C00012804D1FFE702208DF8EC
:102C00000F0044E00299012081F83C00FFE7FFE754
:102C1000009820F0FF000199C968084300900098CF
:102C200020F440700199896808430090009820F4CE
:102C300080600199496808430090009820F4006082
:102C40000199096808430090009820F48050019988
:102C5000096908430090009820F4005001994969DF
:102C600008430090009820F480400199C969084306
:102C700000900098029909684864FFE702990020D3
:102C800081F83C00FFE700208DF80F00FFE79DF87A
:102C90000F0004B07047000085B003900291FFE779
:102CA000039890F83C00012804D1FFE702208DF83A
:102CB00013006DE00399012081F83C00FFE7FFE776
:102CC0000399022081F83D00039800684068019054
:102CD0000398006880680090019820F070000190CF
:102CE00002980168019808430190019803990968C6
:102CF00048600398006842F60041C4F2010188422E
:102D00002AD0FFE70398006843F20041C4F20101B2
:102D1000884221D0FFE703980068B0F1804F1BD0B4
:102D2000FFE70398006840F20041C4F200018842C6
:102D300012D0FFE70398006840F60001C4F20001DA
:102D4000884209D0FFE70398006840F60041C4F2CA
:102D5000000188420ED1FFE7009820F0800000902B
:102D60000298416800980843009000980399096808
:102D70008860FFE70399012081F83D00FFE7039990
:102D8000002081F83C00FFE700208DF81300FFE7EA
:102D90009DF8130005B0704780B582B00090009890
:102DA00020B9FFE701208DF807003FE0009890F878
:102DB0003D0040B9FFE70099002081F83C000098F1
:102DC00000F038F8FFE70099022081F83D000099F3
:102DD00051F8040B02F0EEFA0099012081F8460048
:102DE000FFE70099012081F83E00009981F83F003B
:102DF000009981F84000009981F84100FFE7FFE762
:102E00000099012081F84200009981F8430000995F
:102E100081F84400009981F84500FFE700990120FE
:102E200081F83D0000208DF80700FFE79DF80700BE
:102E300002B080BD80B586B005900598006841F26B
:102E40000001C4F20001884219D1FFE7FFE741F217
:102E50001C00C4F20200016841F01001016000682A
:102E600000F0100004900498FFE736200290022141
:102E70000022FFF79BF80298FFF78EF822E00598F2
:102E8000006841F20041C4F20001884219D1FFE715
:102E9000FFE741F21C00C4F20200016841F020018A
:102EA0000160006800F0200003900398FFE73720DE
:102EB000019003210022FFF779F80198FFF76CF8E1
:102EC000FFE7FFE706B080BD83B00190019890F85E
:102ED0003D00012804D0FFE701208DF80B0059E0E8
:102EE0000199022081F83D0001980168C86840F00E
:102EF0000100C8600198006842F60041C4F2010177
:102F000088422AD0FFE70198006843F20041C4F2EA
:102F10000101884221D0FFE701980068B0F1804F9D
:102F20001BD0FFE70198006840F20041C4F20001A5
:102F3000884212D0FFE70198006840F60001C4F211
:102F40000001884209D0FFE70198006840F600417F
:102F5000C4F20001884212D1FFE70198006880683E
:102F600000F0070000900098062807D0FFE70198BE
:102F70000168086840F001000860FFE706E001987A
:102F80000168086840F001000860FFE700208DF844
:102F90000B00FFE79DF80B0003B0704780B586B0CB
:102FA00004900391049820B9FFE701208DF81700E1
:102FB00084E0049890F83D0040B9FFE704990020B0
:102FC00081F83C00049800F07DF8FFE704990220A6
:102FD00081F83D0004980168886844F20702904334
:102FE0008860049951F8040B02F0E4F90498006831
:102FF00080680290049800688069019004980068D5
:10300000006A0090039801680298084302900198B2
:1030100040F203318843019003998868896940EA46
:103020000121019808430190019840F60C41884322
:10303000019001984FF2F001884301900399C8680C
:10304000C96940EA01210198084301900399086980
:10305000096A000140EA0131019808430190009893
:1030600020F02200009003994868496940EA011164
:1030700000980843009002980499096888600198B4
:10308000049909688861009804990968086204999C
:10309000012081F84600049981F83E00049981F8E6
:1030A0003F00049981F84200049981F84300049993
:1030B00081F83D0000208DF81700FFE79DF817000C
:1030C00006B080BD80B58AB00990002008900790B6
:1030D0000690059009980068B0F1804F2BD1FFE76A
:1030E000FFE741F21C00C4F20200016841F0010157
:1030F0000160006800F0010004900498FFE7FFE71A
:1031000041F21800C4F20200016841F004010160BC
:10311000006800F0040003900398FFE70320059087
:1031200000200690079040F60000C4F2010005A9B7
:10313000FEF7DAFC49E00998006840F20041C4F269
:103140000001884240D1FFE7FFE741F21C00C4F2D2
:103150000200016841F002010160006800F0020015
:1031600002900298FFE7FFE741F21800C4F2020064
:10317000016841F010010160006800F0100001904A
:103180000198FFE7C020059000200690079041F2CB
:103190000000C4F2010005A9FEF7A6FCFFE7042128
:1031A000C4F2010108680090009820F4406000908B
:1031B000009840F0E0600090009840F4406000907B
:1031C00000980860FFE7FFE7FFE70AB080BD000056
:1031D00080B586B004900391049890F83E008DF875
:1031E0000B00049890F83F008DF80A00049890F8BE
:1031F00042008DF80900049890F843008DF808000B
:103200000398B8B9FFE79DF80B00012805D1FFE747
:103210009DF80900012804D0FFE701208DF8170070
:1032200079E00499022081F83E00049981F8420077
:10323000FFE742E00398042817D1FFE79DF80A0052
:10324000012805D1FFE79DF80800012804D0FFE719
:1032500001208DF817005EE00499022081F83F00FC
:10326000049981F84300FFE726E09DF80B00012850
:103270000FD1FFE79DF80A0001280AD1FFE79DF86A
:103280000900012805D1FFE79DF80800012804D0B6
:10329000FFE701208DF817003DE00499022081F836
:1032A0003E00049981F83F00049981F84200049996
:1032B00081F84300FFE7FFE7FFE70398019020B1A3
:1032C000FFE70198042807D00DE00498006800216A
:1032D000012202F00FF914E0049800680421012291
:1032E00002F008F90DE00498006800210122009224
:1032F00002F000F9009A04980068042102F0FAF83C
:10330000FFE704980168086840F0010008600020A9
:103310008DF81700FFE79DF8170006B080BD00008C
:1033200081B0009001B0704780B582B001900198E3
:103330000068006900F002010020B0EB510F28D0B6
:10334000FFE701980068C06800F002010020B0EBC0
:10335000510F1DD0FFE7019801686FF0020008616E
:10336000019901200877019800688069800720B1E1
:10337000FFE70198FFF7D4FF06E0019800F042F95B
:10338000019800F049FAFFE7019900200877FFE76C
:10339000FFE701980068006900F004010020B0EB2D
:1033A000910F29D0FFE701980068C06800F0040180
:1033B0000020B0EB910F1ED0FFE7019801686FF07D
:1033C000040008610199022008770198006880696B
:1033D00010F4407F04D0FFE70198FFF7A1FF06E05B
:1033E000019800F00FF9019800F016FAFFE7019933
:1033F00000200877FFE7FFE701980068006900F008
:1034000008010020B0EBD10F28D0FFE70198006839
:10341000C06800F008010020B0EBD10F1DD0FFE71D
:10342000019801686FF0080008610199042008778D
:1034300001980068C069800720B1FFE70198FFF795
:103440006FFF06E0019800F0DDF8019800F0E4F964
:10345000FFE7019900200877FFE7FFE70198006880
:10346000006900F010010020B0EB111F29D0FFE728
:1034700001980068C06800F010010020B0EB111F37
:103480001ED0FFE7019801686FF0100008610199F4
:103490000820087701980068C06910F4407F04D0C4
:1034A000FFE70198FFF73CFF06E0019800F0AAF85B
:1034B000019800F0B1F9FFE7019900200877FFE7D4
:1034C000FFE7019800680069C00780B1FFE7019835
:1034D0000068C068C00748B1FFE7019801686FF055
:1034E00001000861019800F0F5FAFFE7FFE7019895
:1034F00000680069C1B20020B0EBD11F13D0FFE714
:1035000001980068C068C1B20020B0EBD11F09D09B
:10351000FFE7019801686FF0800008610198FFF7EC
:1035200059FBFFE7FFE701980068006900F04001E0
:103530000020B0EB911F14D0FFE701980068C0682D
:1035400000F040010020B0EB911F09D0FFE7019887
:1035500001686FF040000861019800F0D5FCFFE7BA
:10356000FFE701980068006900F020010020B0EB3F
:10357000511F14D0FFE701980068C06800F02001D7
:103580000020B0EB511F09D0FFE7019801686FF0F0
:10359000200008610198FFF721FBFFE7FFE702B079
:1035A00080BD000080B586B0059000200490039097
:1035B000029001900598006842F60041C4F20101B2
:1035C00088421DD1FFE7FFE741F21800C4F2020074
:1035D000016841F004010160006800F004000090FF
:1035E0000098FFE74FF420600190022002900490C1
:1035F00040F60000C4F2010001A9FEF775FAFFE7EA
:1036000006B080BD81B0009001B0704780B586B033
:10361000049003910292FFE7049890F83C0001287F
:1036200004D1FFE702208DF8170085E004990120FE
:1036300081F83C00FFE7FFE7029801900C2800F2B8
:1036400070800199DFE801F0076D6D6D206D6D6D83
:103650003A6D6D6D530004980068039901F066FFA0
:1036600004980168886940F008008861049801683E
:10367000886920F004008861039802690498016851
:103680008869104388614DE004980068039901F04F
:10369000C5FF04980168886940F400608861049857
:1036A0000168886920F48060886103980269049841
:1036B0000168886940EA0220886133E00498006864
:1036C000039902F027F804980168C86940F00800DF
:1036D000C86104980168C86920F00400C8610398B3
:1036E000026904980168C8691043C8611AE0049827
:1036F0000068039902F08AF804980168C86940F4E8
:103700000060C86104980168C86920F48060C861DD
:103710000398026904980168C86940EA0220C861F8
:1037200000E0FFE7FFE70499002081F83C00FFE795
:1037300000208DF81700FFE79DF8170006B080BD48
:1037400080B582B00090009820B9FFE701208DF885
:1037500007003FE0009890F83D0040B9FFE700996E
:10376000002081F83C00009800F038F8FFE700994D
:10377000022081F83D00009951F8040B01F01AFE77
:103780000099012081F84600FFE70099012081F8A7
:103790003E00009981F83F00009981F840000099AF
:1037A00081F84100FFE7FFE70099012081F842001E
:1037B000009981F84300009981F84400009981F84C
:1037C0004500FFE70099012081F83D0000208DF8B9
:1037D0000700FFE79DF8070002B080BD82B00190AE
:1037E0000198006842F60041C4F20101884210D1FC
:1037F000FFE7FFE741F21800C4F20200016841F45C
:1038000000610160006800F4006000900098FFE72C
:10381000FFE702B07047000081B0009001B0704730
:1038200080B58CB00A900991099828B9FFE70A98E9
:1038300090F83E0007901CE00998042805D1FFE7A6
:103840000A9890F83F00069010E00998082805D1E2
:10385000FFE70A9890F84000059004E00A9890F875
:1038600041000590FFE705980690FFE7069807904E
:10387000FFE70798012804D0FFE701208DF82F000B
:103880009FE0099828B9FFE70A99022081F83E00D5
:103890001EE00998042806D1FFE70A99022081F862
:1038A0003F00049012E00998082806D1FFE70A9922
:1038B000022081F84000039005E00A99022081F877
:1038C00041000390FFE703980490FFE70498FFE7A7
:1038D0000A98006809990122019201F00BFE0198F3
:1038E0000A99096842F60042C4F20102914202902C
:1038F0000CD0FFE70A9800684CF60041CBF6FE7149
:103900000844B0FA80F040090290FFE70298C0072F
:1039100038B1FFE70A980168486C40F400404864F9
:10392000FFE70A98006842F60041C4F201018842AC
:103930002AD0FFE70A98006843F20041C4F201016F
:10394000884221D0FFE70A980068B0F1804F1BD071
:10395000FFE70A98006840F20041C4F20001884283
:1039600012D0FFE70A98006840F60001C4F2000197
:10397000884209D0FFE70A98006840F60041C4F287
:103980000001884212D1FFE70A980068806800F0C1
:10399000070008900898062807D0FFE70A980168F2
:1039A000086840F001000860FFE706E00A98016837
:1039B000086840F001000860FFE700208DF82F0044
:1039C000FFE79DF82F000CB080BD000080B586B0E9
:1039D00005900491059800680499002201F08AFD81
:1039E00005980168012042F60042C4F201029142AA
:1039F00003900CD0FFE7059800684CF60041CBF629
:103A0000FE710844B0FA80F040090390FFE7039884
:103A1000C007D8B1FFE7FFE705980068006A41F2E8
:103A20001111084210D1FFE705980068006A40F2C2
:103A30004441084207D1FFE705980168486C20F42B
:103A400000404864FFE7FFE7FFE7FFE7FFE705986F
:103A50000068006A41F21111084210D1FFE7059891
:103A60000068006A40F24441084207D1FFE7059828
:103A70000168086820F001000860FFE7FFE7FFE742
:103A8000049828B9FFE70599012081F83E001EE05F
:103A90000498042806D1FFE70599012081F83F002A
:103AA000029012E00498082806D1FFE7059901204A
:103AB00081F84000019005E00599012081F841005E
:103AC0000190FFE701980290FFE70298FFE70020CE
:103AD00006B080BD80B584B00390039840F25C21AD
:103AE000C2F20001884240F0AD80FFE740F20D4095
:103AF000C2F200000078002873D1FFE740F20C40CA
:103B0000C2F20000007800286BD1FFE740F2FE30DF
:103B1000C2F200000078002863D1FFE740F22000E5
:103B2000C2F20000016840F27430C2F2000001608D
:103B30000068642809DBFFE740F27431C2F200013B
:103B40000868C0F164000860FFE740F2B401C2F207
:103B5000000108880130088040F2FF30C2F2000006
:103B60000078E8BBFFE740F2B400C2F20000008832
:103B7000B0F5FA6F34DBFFE740F2A200C2F20000BA
:103B8000007878B9FFE740F20140C2F20000007807
:103B9000012807D1FFE740F2A201C2F20001012093
:103BA000087016E040F2A200C2F20000007878B976
:103BB000FFE740F20140C2F200000078022807D17E
:103BC000FFE740F2A201C2F2000102200870FFE705
:103BD000FFE740F2FF31C2F2000101200870FFE769
:103BE000FFE740F20040C2F200000078C0B9FFE7F2
:103BF00040F2F830C2F20000007888B1FFE740F2EE
:103C0000F830C2F20000007840F21901C2F200015F
:103C1000087040F20041C2F2000101200870FFE785
:103C200040F2A000C2F200000088642809DBFFE730
:103C300001F0FAFA40F2A001C2F20001002008806F
:103C4000FFE7FFE7039840F21421C2F20001884227
:103C500040F05781FFE7FCF7B1FE40F20800C2F2E6
:103C600000000068022840F0AE80FFE740F2A200AA
:103C7000C2F200000078012840F0A480FFE740F283
:103C80001900C2F200000078002800F09B80FFE7D6
:103C900040F21900C2F20000007840B3FFE740F2A2
:103CA000FC30C2F200000088B0F5E16F1FDAFFE7D8
:103CB00040F2FE31C2F200010120087040F2FC31F6
:103CC000C2F2000108880130088040F27830C2F268
:103CD00000000021C4F24841029103F005FB029963
:103CE00040F29830C2F2000003F0FEFA69E040F2C0
:103CF000FC30C2F200000088B0F5E16F60DBFFE746
:103D000040F20D41C2F200010120087040F219009A
:103D1000C2F200000078012821D1FFE740F2FE3016
:103D2000C2F200000078012819D1FFE703F0A2FADF
:103D300040F2AD00C2F200000078012807D1FFE791
:103D400040F20C01C2F2000101200870FFE740F2CE
:103D5000AC01C2F2000108780130087029E040F29D
:103D60001900C2F200000078022821D1FFE740F2DA
:103D7000FE30C2F200000078012819D1FFE703F0FD
:103D80009FFA40F2AC00C2F200000078012807D18F
:103D9000FFE740F20C01C2F2000100200870FFE7CB
:103DA00040F2AD01C2F20001087801300870FFE76F
:103DB000FFE740F2FE31C2F2000100200870FFE789
:103DC000FFE7FFE79CE040F20800C2F20000006855
:103DD000032840F09480FFE740F2A200C2F2000006
:103DE000007801285AD1FFE740F27030C2F200009B
:103DF0000078002852D0FFE740F27030C2F2000095
:103E0000007810B3FFE740F23810C2F200000088DB
:103E1000B0F5E16F19DAFFE740F23811C2F20001A4
:103E200008880130088040F27830C2F2000000219A
:103E3000C4F24841019103F057FA019940F29830D9
:103E4000C2F2000003F050FA27E040F23810C2F24C
:103E500000000088B0F5E16F1EDBFFE740F20D4186
:103E6000C2F200010120087040F27030C2F200007E
:103E70000078012803D1FFE703F0FCF90BE040F2E2
:103E80007030C2F200000078022803D1FFE703F08F
:103E900017FAFFE7FFE7FFE7FFE72FE040F20C40EC
:103EA000C2F200000078012827D1FFE740F2FA3083
:103EB000C2F20000018801310180008803281BD173
:103EC000FFE740F27830C2F2000048F20001C4F28D
:103ED000D441009103F008FA009940F29830C2F200
:103EE000000003F001FA03F0C5F940F2FA31C2F222
:103EF000000100200880FFE7FFE7FFE7FFE7FFE79B
:103F0000FFE704B080BD000081B0009001B07047B1
:103F100082B00190ADF8021002B0704781B00090FD
:103F200001B0704780B588B00790079800680068B6
:103F3000069007980068C068059007980068406977
:103F40000490002003900290069800F00F00039068
:103F5000039888B9FFE79DF81800800600280AD565
:103F6000FFE79DF814008006002804D5FFE70798B6
:103F700001F096FD76E1FFE70398002800F0B48099
:103F8000FFE79DF81000C00738B9FFE7BDF814003F
:103F900010F4907F00F0A880FFE79DF81800C0079C
:103FA00058B1FFE79DF81500C00730B1FFE707994A
:103FB000086C40F001000864FFE79DF81800400716
:103FC00000280BD5FFE79DF81000C00730B1FFE7D0
:103FD0000799086C40F002000864FFE79DF818009C
:103FE000800700280BD5FFE79DF81000C00730B10F
:103FF000FFE70799086C40F004000864FFE79DF8AC
:1040000018000007002811D5FFE79DF8140080066E
:10401000002805D4FFE79DF81000C00730B1FFE786
:104020000799086C40F008000864FFE70798006CE7
:10403000002858D0FFE79DF81800800600280AD510
:10404000FFE79DF814008006002804D5FFE70798D5
:1040500001F026FDFFE7079800684069C0F3801073
:1040600002900798006C0007002803D4FFE702982D
:1040700088B3FFE7079801F0DBFC07980068406908
:104080004006002822D5FFE707980168486920F01C
:10409000400048610798806B98B1FFE70798816BF3
:1040A00045F61120C0F6000048630798806BFCF7C6
:1040B000B1FF28B1FFE70798806B416B8847FFE7A6
:1040C00003E00798FFF72AFFFFE703E00798FFF7F1
:1040D00025FFFFE706E00798FFF720FF079900207C
:1040E0000864FFE7FFE7BDE00798006B012840F098
:1040F0009980FFE79DF81800C006002840F19280E3
:10410000FFE79DF81400C006002840F18B80FFE710
:10411000FFE7002001900798006800680190079869
:104120000068406801900198FFE7079800684069BF
:104130004006002848D5FFE70798806B0068406874
:10414000ADF80200BDF80200E8B3FFE7BDF80200D9
:104150000799898D884236DAFFE7BDF80200079992
:10416000C8850798806B8069202824D0FFE70798CE
:104170000168C86820F48070C860079801684869C1
:1041800020F00100486107980168486920F040006C
:1041900048610799202081F83E00079900200863B4
:1041A00007980168C86820F01000C8600798806B05
:1041B000FCF7F2FEFFE70798818DC28D891A89B25C
:1041C000FFF7A6FEFFE74DE00799888DC98D401ADD
:1041D000ADF800000798C08D18B3FFE7BDF80000E8
:1041E000F8B1FFE707980168C86820F49070C860CC
:1041F00007980168486920F001004861079920206C
:1042000081F83E0007990020086307980168C86894
:1042100020F01000C8600798BDF80010FFF778FE86
:10422000FFE71FE09DF81800000600280AD5FFE709
:104230009DF814000006002804D5FFE7079801F058
:1042400065FD0FE09DF81800400600280AD5FFE73D
:104250009DF814004006002804D5FFE7079801F0F8
:104260000BFCFFE708B080BD80B582B000900098DD
:1042700020B9FFE701208DF807003EE00098806933
:1042800008B1FFE700E0FFE7009890F83D0040B973
:10429000FFE70099002081F83C00009800F032F818
:1042A000FFE70099242081F83D0000980168C86864
:1042B00020F40050C860009801F098FC0098016854
:1042C000086920F49040086100980168486920F06E
:1042D0002A00486100980168C86840F40050C8602E
:1042E000009900200864009A202182F83D10009A6D
:1042F00082F83E108DF80700FFE79DF8070002B036
:1043000080BD000080B598B01790002016901590E1
:10431000149013901798006843F60001C4F201014D
:10432000884251D1FFE7FFE741F21800C4F20200D2
:10433000016841F480410160006800F480401290FF
:104340001298FFE7FFE741F21800C4F2020001688B
:1043500041F008010160006800F008001190119818
:10436000FFE740201390022014900320169040F69F
:104370000040C4F201000A9013A90B91FDF7B4FBB1
:104380000A980B9980221392002214921592FDF73D
:10439000ABFBFFE70421C4F20101086810901098FC
:1043A00040F0E0601090109840F0040010901098D9
:1043B0000860FFE72520099001210022FDF7F6FDA6
:1043C0000998FDF7E9FD97E01798006844F200416D
:1043D000C4F20001884241D1FFE7FFE741F21C002F
:1043E000C4F20200016841F400310160006800F489
:1043F00000300F900F98FFE7FFE741F21800C4F27A
:104400000200016841F004010160006800F004004E
:104410000E900E98FFE704201390022014900320C2
:10442000169040F60000C4F20100059013A9069111
:10443000FDF75AFB0598069908221392002207926D
:1044400014921592FDF750FB079A2620089011460A
:10445000FDF7ACFD0898FDF79FFD4CE0179800684C
:1044600044F60001C4F20001884243D1FFE7FFE7B0
:1044700041F21C00C4F20200016841F48021016095
:10448000006800F480200D900D98FFE7FFE741F2EF
:104490001800C4F20200016841F0080101600068E0
:1044A00000F008000C900C98FFE74FF48060139028
:1044B000022014900320169040F60040C4F2010040
:1044C000019013A90291FDF70FFB019802994FF497
:1044D000006213920022039214921592FDF704FBDE
:1044E000039A272004900121FDF760FD0498FDF751
:1044F00053FDFFE7FFE7FFE718B080BD80B584B04C
:1045000002900191ADF80220029890F83E00202818
:1045100028D1FFE7019820B1FFE7BDF8020020B9DC
:10452000FFE701208DF80F0020E0FFE7029890F8E8
:104530003C00012804D1FFE702208DF80F0015E0B0
:104540000299012081F83C00FFE7FFE70299002073
:10455000086302980199BDF8022001F0A5FB8DF8CF
:104560000F0003E002208DF80F00FFE79DF80F0019
:1045700004B080BD80B584B003900398006844F215
:104580000041C4F20001884215D1FFE740F20E401D
:10459000C2F20000019000788DF80B009DF80B002E
:1045A00000F026FC019940F2E820C2F2000001224E
:1045B000FFF7A4FFFFE70398006844F60001C4F288
:1045C0000001884215D1FFE740F20F40C2F200001F
:1045D000009000788DF80A009DF80A0000F0F6FCC3
:1045E000009940F22C30C2F200000122FFF786FF52
:1045F000FFE704B080BD000080B58AB00890079145
:10460000ADF81A20059300200290089890F83D001C
:10461000202840F09080FFE7079820B1FFE7BDF821
:104620001A0020B9FFE701208DF8270087E0FFE797
:10463000089890F83C00012804D1FFE702208DF88B
:1046400027007CE00899012081F83C00FFE7FFE7A4
:104650000899002008640899212081F83D00FDF7A1
:1046600007FC0290BDF81A0008998884BDF81A006A
:104670000899C88408988068B0F5805F09D1FFE781
:104680000898006928B9FFE7002004900798039074
:1046900004E00798049000200390FFE7FFE70899E3
:1046A000002081F83C00FFE7FFE70898C08C58B372
:1046B000FFE70898029B05996A4611608021002255
:1046C00001F06EFB20B1FFE703208DF8270036E0F4
:1046D000049858B9FFE7039800886FF35F200899A2
:1046E0000968486003980230039008E00498007855
:1046F000089909684860049801300490FFE7089918
:10470000C88C0138C884D0E70898029B05996A468E
:1047100011604021002201F043FB20B1FFE703209C
:104720008DF827000BE00899202081F83D0000203B
:104730008DF8270003E002208DF82700FFE79DF8A1
:1047400027000AB080BD000081B0009001B0704722
:10475000FFE7FEE780B584B000210391029101914B
:1047600040F2C400C2F20000009042F20042C4F2E3
:10477000010202604FF480728260012202730175AF
:104780004FF46022C261416005210161FCF758FAD3
:1047900018B1FFE7FCF70AF9FFE7042001900120B8
:1047A00002900520039040F2C400C2F2000001A96B
:1047B000FCF76CF918B1FFE7FCF7F8F8FFE7052004
:1047C00001900220029040F2C400C2F2000001A950
:1047D000FCF75CF918B1FFE7FCF7E8F8FFE7062003
:1047E00001900320029040F2C400C2F2000001A92F
:1047F000FCF74CF918B1FFE7FCF7D8F8FFE7072002
:1048000001900420029040F2C400C2F2000001A90D
:10481000FCF73CF918B1FFE7FCF7C8F8FFE7082000
:1048200001900520029040F2C400C2F2000001A9EC
:10483000FCF72CF918B1FFE7FCF7B8F8FFE704B074
:1048400080BD000080B582B0FFE741F21400C4F2E1
:104850000200016841F001010160006800F0010000
:1048600001900198FFE70B20009000221146FDF710
:104870009DFB0098FDF790FB02B080BD80B590B025
:1048800000200F900E900D900C90FFE741F2180061
:10489000C4F20200016841F010010160006800F0FC
:1048A00010000B900B98FFE7FFE741F21800C4F2ED
:1048B0000200016841F020010160006800F0200062
:1048C0000A900A98FFE7FFE741F21800C4F20200DD
:1048D000016841F004010160006800F004000990E3
:1048E0000998FFE7FFE741F21800C4F202000168EF
:1048F00041F008010160006800F008000890089885
:10490000FFE741F20040C4F201000290042101914E
:1049100001220392FDF794FA039A40F60040C4F294
:10492000010006902821FDF78BFA06984FF4887154
:1049300000220492FDF784FA04984FF400410C9190
:104940000D900E9040F60000C4F201000CA90791F2
:10495000FDF7CAF8049807994FF440620C920D9045
:104960000E9041F20000C4F20100FDF7BDF8DDF841
:1049700004C00298039B049A0799CDF830C00D93A8
:104980000E92022205920F92FDF7AEF8DDF80CC0F0
:10499000049B059A069807994FF49C7ECDF830E069
:1049A000CDF834C00E930F92FDF79EF810B080BD85
:1049B00080B594B000210191139112911191109141
:1049C0000F910E910D910C910B910A910991089103
:1049D0000791069105910491039140F23C10C2F2B7
:1049E0000000029042F60042C4F201020260472237
:1049F0004260816040F2E732C260016141618161E1
:104A0000FEF79EFE18B1FFE7FBF7D0FFFFE700209F
:104A10001290139040F23C10C2F2000012A9FEF76F
:104A20003BF918B1FFE7FBF7C1FFFFE760200B90F0
:104A300000200C900D900E900F901090119040F26D
:104A40003C10C2F200000BA90422FEF7DFFD18B1F2
:104A5000FFE7FBF7ABFFFFE740F23C10C2F20000BC
:104A60000BA90C22FEF7D2FD18B1FFE7FBF79EFF62
:104A7000FFE70020039004900590069007904FF404
:104A8000005108910A9040F23C10C2F2000003A9C4
:104A9000FEF7A8F818B1FFE7FBF788FFFFE740F241
:104AA0003C10C2F20000FEF77DFD14B080BD000096
:104AB00080B58EB005A801902421FBF75CFB01991D
:104AC000002202920492039240F28410C2F200008B
:104AD0004FF080430360426082604FF6FF73C36013
:104AE00002618261032305930692012307930892D2
:104AF00009920A920B930C920D92FEF74FFA18B19D
:104B0000FFE7FBF753FFFFE700200390049040F21C
:104B10008410C2F2000003A9FEF7BEF818B1FFE747
:104B2000FBF744FFFFE70EB080BD000080B58EB0FC
:104B300005A801902421FBF71EFB01990022029297
:104B40000492039240F2CC10C2F2000040F2004303
:104B5000C4F200030360426082604FF6FF73C360DB
:104B60000261826103230593069201230793089251
:104B700009920A920B930C920D92FEF70FFA18B15C
:104B8000FFE7FBF713FFFFE700200390049040F2DC
:104B9000CC10C2F2000003A9FEF77EF818B1FFE7BF
:104BA000FBF704FFFFE70EB080BD000080B582B0C8
:104BB00000210191009140F21420C2F2000041F264
:104BC0000002C4F20002026023224260816040F2CF
:104BD000E731C16080218161FEF7DEF818B1FFE79F
:104BE000FBF7E4FEFFE700200090019040F2142064
:104BF000C2F200006946FEF74FF818B1FFE7FBF775
:104C0000D5FEFFE702B080BD80B582B000210191E2
:104C1000009140F25C20C2F2000041F20042C4F276
:104C2000000202602322426081606321C160802112
:104C30008161FEF7B1F818B1FFE7FBF7B7FEFFE7B8
:104C400000200090019040F25C20C2F20000694612
:104C5000FEF722F818B1FFE7FBF7A8FEFFE702B066
:104C600080BD000080B582B040F2A420C2F20000F6
:104C7000019043F60001C4F2010101604FF41651A6
:104C8000416000218160C16001610C22426181614B
:104C9000C161FFF7E9FA18B1FFE7FBF787FEFFE70D
:104CA00002B080BD80B582B040F2E820C2F20000C0
:104CB000019044F20041C4F2000101604FF416512A
:104CC000416000218160C16001610C22426181610B
:104CD000C161FFF7C9FA18B1FFE7FBF767FEFFE70D
:104CE00002B080BD80B582B040F22C30C2F200002C
:104CF000019044F60001C4F2000101604FF4165126
:104D0000416000218160C16001610C2242618161CA
:104D1000C161FFF7A9FA18B1FFE7FBF747FEFFE70C
:104D200002B080BDFFE7FEE780B582B040F21B0114
:104D3000C2F200010020087040F23C10C2F20000F4
:104D400001900421FEF742FE01980C21FEF73EFE81
:104D500002B080BD80B582B040F21B01C2F20001FA
:104D60000120087040F23C10C2F2000001900421C2
:104D7000FEF756FD01980C21FEF752FD02B080BDF2
:104D8000FFE7FEE788B0079006910592079800F0CC
:104D9000070004900498C0F10700052803D3FFE73B
:104DA0000420019004E00498C0F107000190FFE79F
:104DB0000198039004980430062803D8FFE70020E8
:104DC000009003E0049803380090FFE700980290F9
:104DD00006980399012202FA01F101390840029B69
:104DE000984005999A40013A1140084308B070472D
:104DF00082B08DF8070040F28900C2F2000000780E
:104E0000D8B9FFE79DF80700FE2816D1FFE740F26A
:104E10008901C2F20001012008709DF8070040F2EC
:104E20008803C2F200031A78511C197040F2240161
:104E3000C2F2000121F81200C5E040F28900C2F27E
:104E40000000007801281BD1FFE79DF807002C28FF
:104E500016D1FFE740F28901C2F20001022008707A
:104E60009DF8070040F28803C2F200031A78511C33
:104E7000197040F22401C2F2000121F81200A1E0F1
:104E800040F28900C2F20000007802281BD1FFE73F
:104E90009DF80700122816D1FFE740F28901C2F2FF
:104EA0000001032008709DF8070040F28803C2F259
:104EB00000031A78511C197040F22401C2F200015B
:104EC00021F812007DE040F28900C2F20000007873
:104ED000032830D1FFE79DF8071040F28800C2F2A6
:104EE000000003785A1C027040F22402C2F2000251
:104EF00022F813100078092805DCFFE79DF8070069
:104F00005B2817D1FFE740F28901C2F200010420BB
:104F1000087040F22400C2F20000C18840F2200272
:104F2000C2F200021160007A40F20141C2F20001B7
:104F30000870FFE744E040F28900C2F20000007808
:104F400004281DD1FFE740F28800C2F2000001787A
:104F500040F22400C2F2000000EB410030F8020CE5
:104F60005B280CD1FFE740F28901C2F2000100206A
:104F7000087040F28801C2F200010870FFE71EE0ED
:104F800040F28901C2F200010020087040F288015D
:104F9000C2F2000108700090FFE7009809280DDCBC
:104FA000FFE7009A40F22401C2F20001002021F83C
:104FB0001200FFE7009801300090EEE7FFE7FFE7FF
:104FC000FFE7FFE7FFE702B07047000082B08DF80F
:104FD000070040F29700C2F200000078D8B9FFE75E
:104FE0009DF807002E2816D1FFE740F29701C2F284
:104FF0000001012008709DF8070040F29603C2F2FC
:1050000000031A78511C197040F28A01C2F20001A3
:1050100021F81200A1E040F29700C2F200000078EF
:1050200001281BD1FFE79DF80700992816D1FFE75B
:1050300040F29701C2F20001022008709DF80700BB
:1050400040F29603C2F200031A78511C197040F224
:105050008A01C2F2000121F812007DE040F29700BF
:10506000C2F200000078022830D1FFE79DF8071057
:1050700040F29600C2F2000003785A1C027040F21F
:105080008A02C2F2000222F813100078072805DC19
:10509000FFE79DF80700EE2817D1FFE740F29701E0
:1050A000C2F200010320087040F28A00C2F2000040
:1050B000017940F21C02C2F200021170807940F2C4
:1050C000F831C2F200010870FFE744E040F29700B7
:1050D000C2F20000007803281DD1FFE740F29600DD
:1050E000C2F20000017840F28A00C2F2000000EB38
:1050F000410030F8020CEE280CD1FFE740F2970196
:10510000C2F200010020087040F29601C2F20001D4
:105110000870FFE71EE040F29701C2F20001002094
:10512000087040F29601C2F2000108700090FFE79B
:10513000009807280DDCFFE7009A40F28A01C2F2CE
:105140000001002021F81200FFE7009801300090D4
:10515000EEE7FFE7FFE7FFE7FFE702B07047000079
:1051600040F2B832C2F2000200201060506090603D
:10517000D060D0614FF07A5CC2F810C041F26F236A
:10518000C3F60333536149F69A11C3F6196191616D
:1051900040F2D832C2F20002106050609060D060DD
:1051A000D061C2F810C05361916140F27831C2F20F
:1051B0000001086048608860C860C8614CF28F22B6
:1051C000C3F675620A614861886140F29831C2F2A3
:1051D0000001086048608860C860C8610A61486171
:1051E000886170477047000082B00190019840F2DA
:1051F0000401C2F200010968C90844F6D352C1F2A1
:105200006202A1FB0221890948430090FFE700BF29
:10521000FFE70098411E00910028F8D1FFE702B097
:10522000704700007047000080B582B000208DF804
:105230000700FFE79DF80700042826DCFFE740F29F
:105240000800C2F20000026840F21C00C2F2000036
:10525000037840F29800C2F20000009047F64C51EB
:10526000C0F6000102F0E4F8009940F22C30C2F2DE
:10527000000008224FF47A73FFF7BEF9FFE79DF8AC
:10528000070001308DF80700D4E702B080BD0000B0
:1052900080B582B0009000980138B0F1807F03D3D0
:1052A000FFE70120019019E0009801384EF2140147
:1052B000CEF2000108604FF0FF300F2100F0F8FD42
:1052C0004EF21801CEF20001002008604EF21002EA
:1052D000CEF20002072111600190FFE7019802B0B1
:1052E00080BD000080B5FCF7C9FD40F2A001C2F20C
:1052F000000108880130088080BD000080B598B0AA
:105300000EA801902821FAF736FF01980023029396
:105310000D930C930B930A930993089307930693A9
:1053200005930493039301220E924FF480310F9161
:10533000109312920222159216914FF4E0111791D8
:10534000FDF702F918B1FFE7FBF730FBFFE70F208D
:10535000099002210A9100200B904FF480620C9278
:105360000D9009A8FCF728FF18B1FFE7FBF71EFB1B
:10537000FFE7022003904FF40040059003A8FCF7DC
:1053800037FE18B1FFE7FBF711FBFFE718B080BD50
:105390007047000080B540F21420C2F20000FDF713
:1053A000C3FF80BD80B540F25C20C2F20000FDF773
:1053B000BBFF80BD83B0029001910298006800900D
:1053C000029842F60041C4F20101884225D0FFE76D
:1053D000029843F20041C4F2010188421DD0FFE768
:1053E0000298B0F1804F18D0FFE7029840F20041D8
:1053F000C4F20001884210D0FFE7029840F6000195
:10540000C4F20001884208D0FFE7029840F600414C
:10541000C4F2000188420AD1FFE7009820F0700032
:10542000009001984168009808430090FFE70298B7
:1054300042F60041C4F20101884225D0FFE70298FC
:1054400043F20041C4F2010188421DD0FFE70298F7
:10545000B0F1804F18D0FFE7029840F20041C4F24B
:105460000001884210D0FFE7029840F60001C4F224
:105470000001884208D0FFE7029840F60041C4F2DC
:10548000000188420AD1FFE7009820F440700090A4
:105490000198C168009808430090FFE7009820F049
:1054A00080000199496908430090009802990860BA
:1054B000019880680299C862019800680299886220
:1054C000029842F60041C4F20101884208D0FFE789
:1054D000029843F20041C4F20101884205D1FFE77E
:1054E0000198006902990863FFE702990120486169
:1054F00003B0704784B0039002910192029800F0CB
:105500001F01012088400090009A0399086A904387
:1055100008620198029901F01F0100FA01F2039953
:10552000086A1043086204B07047000085B0049018
:1055300003910499086A20F0010008620498006A47
:105540000190049840680090049880690290029845
:1055500020F070000290029820F00300029003985F
:105560000168029808430290019820F0020001901F
:1055700003988168019808430190049842F600411D
:10558000C4F20101884208D0FFE7049843F20041C9
:10559000C4F2010188420ED1FFE7019820F0080013
:1055A00001900398C168019808430190019820F088
:1055B00004000190FFE7049842F60041C4F20101A3
:1055C000884208D0FFE7049843F20041C4F2010189
:1055D000884213D1FFE7009820F480700090009873
:1055E00020F40070009003984169009808430090EF
:1055F00003988169009808430090FFE70098049998
:105600004860029804998861039840680499486347
:1056100001980499086205B07047000085B00490B5
:1056200003910499086A20F0100008620498006A47
:105630000190049840680090049880690290029854
:1056400020F4E0400290029820F440700290039809
:105650000168029840EA01200290019820F02000A1
:10566000019003988168019840EA01100190049824
:1056700042F60041C4F20101884208D0FFE70498D5
:1056800043F20041C4F2010188420FD1FFE70198C3
:1056900020F0800001900398C168019840EA011051
:1056A0000190019820F040000190FFE7049842F635
:1056B0000041C4F20101884208D0FFE7049843F298
:1056C0000041C4F20101884215D1FFE7009820F49F
:1056D00080600090009820F4006000900398416979
:1056E000009840EA8100009003988169009840EAA0
:1056F00081000090FFE7009804994860029804999F
:105700008861039840680499886301980499086245
:1057100005B0704785B0049003910499086A20F49D
:10572000807008620498006A0190049840680090B4
:105730000498C0690290029820F0700002900298CC
:1057400020F0030002900398016802980843029039
:10575000019820F40070019003988168019840EA54
:1057600001200190049842F60041C4F201018842F0
:1057700008D0FFE7049843F20041C4F201018842D7
:105780000FD1FFE7019820F4006001900398C168F1
:10579000019840EA01200190019820F48060019076
:1057A000FFE7049842F60041C4F20101884208D0A4
:1057B000FFE7049843F20041C4F20101884215D189
:1057C000FFE7009820F480500090009820F40050EB
:1057D000009003984169009840EA011000900398F6
:1057E0008169009840EA01100090FFE70098049951
:1057F000486002980499C861039840680499C86396
:1058000001980499086205B07047000085B00490C3
:1058100003910499086A20F4805008620498006A91
:1058200001900498406800900498C0690290029822
:1058300020F4E0400290029820F440700290039817
:105840000168029840EA01200290019820F400507B
:10585000019003988168019840EA01300190049812
:1058600042F60041C4F20101884208D0FFE70498E3
:1058700043F20041C4F2010188420BD1FFE70098D6
:1058800020F48040009003984169009840EA81101C
:105890000090FFE700980499486002980499C86155
:1058A000039840680499086401980499086205B057
:1058B0007047000080B540F20800C2F200000068A6
:1058C000012819D1FFE740F21A00C2F20000007867
:1058D000012811D1FFE7FFF727FA40F21C00C2F2BE
:1058E0000000007838B1FFE740F20801C2F2000181
:1058F00002200860FFE78AE040F20800C2F20000E0
:10590000006802284FD1FFE740F2A200C2F2000077
:105910000078022813D0FFE740F2B600C2F2000080
:10592000007848B9FFE740F2B601C2F20001012059
:105930000870FFF70FFAFFE700F0FAFA32E040F2E2
:10594000A200C2F20000007802282AD1FFE740F24C
:10595000B600C2F20000007801280DD1FFE7FFF782
:10596000E3F940F2B601C2F20001002008704FF4E2
:105970007A70FCF797F8FFE740F21A00C2F20000D5
:10598000007838B9FFE740F20801C2F200010320B5
:105990000860FFE740F20801C2F20001032008603E
:1059A000FFE7FFE732E040F20800C2F200000068C3
:1059B00003282AD1FFE740F2B600C2F200000078C7
:1059C00048B9FFE740F2B601C2F2000101200870B9
:1059D000FFF7C0F9FFE740F20C01C2F2000100201E
:1059E000087040F2AC01C2F200010120087040F2E0
:1059F000AD01C2F20001087040F20801C2F20001DC
:105A00000320086000F0D6FFFFE7FFE7FFE780BD57
:105A100080B582B001900198406A00900099002002
:105A2000C8850099C8840098FEF778FA02B080BD56
:105A300081B0009000980168C86820F49070C86038
:105A400000980168486920F0010048610098006BE7
:105A5000012807D1FFE700980168C86820F010000E
:105A6000C860FFE70099202081F83E0000990020DF
:105A7000086301B07047000080B582B001900198C2
:105A80000168C86820F04000C8600199202081F8B2
:105A90003D000198FEF758FE002002B080BD0000D6
:105AA00080B586B00490049890F83E00222840F01B
:105AB0009480FFE704988068B0F5805F15D1FFE718
:105AC0000498006988B9FFE7002003900498806A71
:105AD00002900498006840686FF35F200299088084
